:020000040800F2
:10000000D00A002001010008971C0008751700089D
:10001000951C00085D070008012000080000000092
:100020000000000000000000000000006D1F00083C
:100030005F07000800000000991C00086F1F0008FF
:100040001B0100081B0100081B0100081B01000820
:100050001B0100081B0100081B0100081B01000810
:100060001B0100081B0100081B0100081B01000800
:100070001B0100081B0100081B0100081B010008F0
:100080001B0100081B0100081B0100081B010008E0
:100090001B0100081B0100081B0100081B010008D0
:1000A0001B0100081B0100081B0100081B010008C0
:1000B0001B0100081B0100081B0100081B010008B0
:1000C0001B0100081B0100081B0100081B010008A0
:1000D0001B0100081B0100081B0100081B01000890
:1000E0001B0100081B0100081B010008DFF80CD0F1
:1000F00000F022FB00480047A5220008D00A00209B
:100100000648804706480047FEE7FEE7FEE7FEE7B1
:10011000FEE7FEE7FEE7FEE7FEE7FEE7B91F0008A1
:10012000ED000008202A04DB203A21FA02F0002129
:10013000704721FA02F3D040C2F1200291400843F7
:1001400019467047D2B201E000F8012B491EFBD2DC
:1001500070470022F6E710B513460A4604461946D2
:10016000FFF7F0FF204610BDF0B480EA0102D40F83
:100170004200B2EB410F02D20246084611464A0045
:1001800042D0C30DDDB2C1F3C752AD1A202D35DA0E
:10019000C1F3160141F4000204B15242C5F1200638
:1001A00002FA06F12A411044B3EBD05F23D0C4B168
:1001B000012DA0EBC35009DCF0BC4FF0004202EA75
:1001C000C352DBB200F5000000F02ABA400000F193
:1001D000807000EBC350A0F1807040EAD1704900FC
:1001E00009E0490841EAC071A0EBC35000F50000E6
:1001F000400800EBC350F0BC00F009BA6142012294
:1002000002EB4101001BF6E7F0BC704781F00041B2
:10021000AAE780F00040A7E780EA010210B502F0EB
:100220000043400022D04A001FD0010E01EB1261B2
:10023000C0F35600C2F3560240F4000042F400023C
:10024000A0FB022000047F39140400D0401C50EAB7
:10025000124001D44000491EC2B20C0604EBD0107B
:10026000401C4008802A02D003E0002010BD20F08E
:100270000100002900DA0020184310BD420005D01B
:10028000C0F3C7525242914201DC0020704700EB9C
:10029000C15070472DE9FE4F804681EA0300C00F30
:1002A0000C46009021F0004123F00045B8EB02001D
:1002B000A94105D24046214690461C460B460246BF
:1002C00023F00040104347D0270DC7F30A00C3F3C3
:1002D0000A510290401A019040286BDAC3F31300D0
:1002E00040F4801B0098924620B10023D2EB030A11
:1002F00063EB0B0B01985946C0F14002504600F0E9
:1003000065F906460D4650465946019A00F06DF9CA
:1003100010EB08006141002487EA115284EAE77378
:100320001A4340D0009A62B3019A012A4FEA075259
:1003300015DC001B61EB02014FF0004202EA07529C
:10034000CDE90042001C41F5801132462B4600F0F9
:10035000A4F903B0BDE8F08F40462146F9E7001B41
:1003600061EB0201001C41F5801300185B4120186D
:10037000A2F5001747EB030140EAD570B6196D41AD
:1003800011E06D084FEA360645EAC0754FEA07529C
:10039000001B61EB0201001C41F5801149084FEA86
:1003A00030000019514132462B4603B0BDE8F04FF2
:1003B00000F064B90098012240000023D0EB020253
:1003C00063EBE073009821464FEAE074B8EB00005D
:1003D00061EB0401E9E783F000435BE781F0004152
:1003E00058E72DE9FE4F81EA030404F0004421F0B0
:1003F000004100944FF0000B23F0004350EA010449
:100400005ED052EA03045BD0C3F30A54C1F30A5529
:100410002C44A4F2F3340194A0FB0254C1F3130161
:1004200041F48011C3F3130343F4801301FB02442E
:1004300000FB034E840A970A44EA815447EA835733
:10044000A4FB076802958D0A05FB07854FEA932CEC
:1004500004FB0C542705029D4FEA065847EA16375D
:10046000B5EB08056EEB070C870E920E47EA811775
:1004700042EA8312A7FB0201B6EB0B0164EB000416
:100480002B0D43EA0C335E1844EB1C50DA46514600
:10049000E7FB0201C5F313044FEA0B3343EA14539D
:1004A0004FEA0432019C43EA0603A4F10C040294CF
:1004B000009CCDE900B400F0F0F803B0BDE8F08F87
:1004C00000200146F9E770B521F0004303430CD04A
:1004D000C1F30A550024D5EB040564EB0403D617D9
:1004E000AD1AB34102DB0020014670BD201841EB7C
:1004F000025170BDC10F80EAE0700844CA0796231C
:10050000002100F08DB896230022114600F088B833
:1005100000F0004220F00040C10DC0F3160040F48E
:1005200000007F2901DA00207047962903DCC1F121
:100530009601C84001E096398840002AF4D0404234
:10054000704700F0004230F000400AD0C10D01F5C4
:100550006071C0F3160042EA0151C208400711431E
:10056000704700200146704701F0004330B421F08D
:10057000004150EA010206D00A0DA2F56072C1F3F3
:100580001301002A02DC30BC00207047440F44EA0B
:10059000C104C100E01830BC00EBC25000F037B815
:1005A00030B50B46014600202022012409E021FA43
:1005B00002F59D4205D303FA02F5491B04FA02F540
:1005C0002844151EA2F10102F1DC30BD202A04DB13
:1005D000203A00FA02F1002070479140C2F1200356
:1005E00020FA03F3194390407047202A06DBCB170B
:1005F000203A41FA02F043EAE07306E041FA02F3DE
:10060000D040C2F1200291400843194670470029AA
:10061000A8BF7047401C490008BF20F00100704788
:1006200010B4B0FA80FC00FA0CF050EA010404BFE8
:1006300010BC704749B1CCF1200421FA04F411FA3E
:100640000CF118BF012121430843A3EB0C01CB1D82
:100650004FEA00614FEA102042BF002010BC7047F3
:1006600000EBC35010440029A4BF10BC7047401CCD
:10067000490008BF20F0010010BC704710B5141EDF
:1006800073F1000408DA401C41F1000192185B414B
:100690001A4301D120F0010010BD2DE9F04D924622
:1006A0009B4611B1B1FA81F202E0B0FA80F2203239
:1006B0009046FFF78BFF04460F4640EA0A0041EAE6
:1006C0000B0153465A46084313D0114653EA010022
:1006D00019D0C8F140025046FFF724FD05460E46EA
:1006E000504659464246FFF771FF084305D00120A6
:1006F00004E020463946BDE8F08D0020054346EA77
:10070000E0762C4337430A986305E40AA0EB08001F
:100710000022FD0A44EA47540A3002D5002001466F
:10072000E9E7010510196941DDE90845001969414A
:10073000BDE8F04DA2E70000064C074D06E0E0687A
:1007400040F0010394E8070098471034AC42F6D318
:10075000FFF7D0FC2C3500084C350008FEE7704749
:100760007047000070B5044600F004F90546601CAF
:1007700002D004480078044400F0FCF8401BA0427A
:10078000FAD370BD100000202DE9F84FDFF8B891C2
:10079000002409F1040A0AF1040B23460F270BF188
:1007A000040EC9E00125A5402A40AA427DD1674E2A
:1007B000D1F804C0ACEB0608B44532D014DCBCF16F
:1007C000030F3AD009DCBCF1000F2AD0BCF1010FB5
:1007D0001CD0BCF1020F31D11DE0BCF1110F17D0BC
:1007E000BCF1120F2AD119E0B8F5881F19D006DC28
:1007F000B8F5803F15D0B8F5801F1FD111E0B8F5CE
:10080000001F0ED0B8F5041F18D10AE0CB6815E020
:10081000CB681B1D12E0CB6808330FE0CB680C33AC
:100820000CE08B682BB1012B4FF0080303D045611E
:1008300004E0042302E0056100E00023FF2A01D860
:10084000064601E000F104064FEA840501D9A5F14E
:100850002005D6F8008007FA05FC28EA0C0803FA00
:1008600005F548EA0508C6F800804D68ED0062D538
:10087000374DAE6946F00106AE61AD6924F003065E
:1008800005F001050095334D06EB050CDCF808502A
:10089000A607360F07FA06F825EA0805DFF8B8803C
:1008A000404503D14FF0000817E044E0DFF8AC808A
:1008B000404502D14FF001080FE0DFF8A480404529
:1008C00002D14FF0020808E0DFF89880404502D1DD
:1008D0004FF0030801E04FF0040808FA06F848EA70
:1008E0000508CCF808804D68D9F80060ED034D4646
:1008F00001D5164300E096432E604D68DAF800609B
:10090000AD03554601D5164300E096432E604D6871
:10091000DBF80060ED025D4601D5164300E096432A
:100920002E604D68DEF80060AD02754601D51643B5
:1009300000E096432E60641C0D682A46E5407FF473
:1009400031AFBDE8F88F0000000401400000111035
:10095000001002400000014000080140000C01406E
:1009600000100140001401400AB101617047090400
:10097000FBE700000148806870470000100000207D
:1009800070B504001BD094F83D00002520B984F810
:100990003C50204600F098FB242084F83D0020685D
:1009A000016821F00101016000F0FAFC4D4A616824
:1009B000914201D84C4900E04C49884201D20120C3
:1009C00070BD4B492368B0FBF1F15E6826F03F062D
:1009D0000E435E606368934206D94FF496735943A1
:1009E0004FF47A73B1FBF3F12368491C1E6A26F0B9
:1009F0003F06314319626168914210D84900401E98
:100A0000B0FBF1F2521CC2F30B02042A01D2042003
:100A100022E0B0FBF1F0401CC0F30B001CE0A36827
:100A2000F3B301EBC10202EB0116421EB2FBF6F278
:100A3000521C42F48042120549D093B301EBC1022B
:100A400002EB0111401EB0FBF1F0401CC0F30B00A3
:100A500040F4804040F400402168CA694CF6FF73BE
:100A60009A431043C861D4E90701084321680A6822
:100A700022F0C00210430860D4E90301014320685A
:100A8000826848F2FF339A4311438160D4E905013B
:100A900008432168CA6822F0FF021043C86001E0E1
:100AA0000EE016E02068016841F001010160256454
:100AB000202084F83D00256384F83E50002070BD5E
:100AC00001EB4106421EB2FBF6F2521CB3E70120D5
:100AD000C2E701EB4101401EB0FBF1F0401CC0F346
:100AE0000B00B7E7A086010080841E0000093D00CE
:100AF00040420F002DE9FF4F81B089460446FFF7C1
:100B000039FF054694F83D004FF0010820287AD1BE
:100B1000192301224B492046009500F06BFF002865
:100B200071D194F83C0001286DD0012084F83C007C
:100B300020680168C90703D1016841F00101016023
:100B40002068016821F400610160242084F83D00E0
:100B5000002626643C48E0624FF0011B20272068F5
:100B6000016841F4807101600095002259462046D9
:100B7000049B00F03FFF002856D1216809F0FE00D9
:100B80000861FFF7F7FE2168054648694969C0F327
:100B90004000C1F380214FF0A00A0FE0FFF7EAFE0A
:100BA000411B0498814200D808B984F83DA021680F
:100BB00048694969C0F34000C1F3802194F83D20A1
:100BC000A02A02D008B90029E8D084F83D70206836
:100BD0004169C943890717D4016841F40071016074
:100BE0002068416980691923012216492046009531
:100BF00000F000FFC0B984F83D7084F83C6000202C
:100C000005B0BDE8F08F1BE0016841F400710160A0
:100C100021686FF480604861192301220949204648
:100C2000009500F0E7FE08B10120E9E7039808F11C
:100C30000108804593D384F83D7084F83C60F3E765
:100C40000220DDE7020010000000FFFF2DE9F84F51
:100C50001F4690468A460446DDF82890FFF78AFE34
:100C6000054694F83D0020287FD1192301224049F0
:100C70002046009500F0BEFE002876D194F83C0096
:100C8000012872D0012084F83C0020680168C9075F
:100C900003D1016841F0010101602068016821F47D
:100CA00000610160212084F83D00102084F83E009E
:100CB00000262664C4F824806785608D20852D4831
:100CC000E0622B464A465146204600F06BFD90B943
:100CD000206841698069009036E02A4649462046EE
:100CE00000F03AFF50B1206C042804D1206801685C
:100CF00041F4007101600120BDE8F88F606A21684D
:100D000000780861606A401C6062618D491E6185DF
:100D1000218D491E89B2218522685369DB435B0717
:100D20000BD451B100781061606A401C6062608D24
:100D3000401E6085208D401E20852A46494620465B
:100D400000F032FE0028CED1208D0028C5D154F805
:100D50003D0B016841F400710160202004F81E0978
:100D6000E67766770020C7E7FFE70220C4E70000C8
:100D7000020010000000FFFF2DE9FF4F83B09A46EC
:100D8000DDE9119793460446DDF84080FFF7F2FD58
:100D9000054694F83D0020286FD1192301227B4994
:100DA0002046009500F026FE0028F5D194F83C007E
:100DB000012862D0012084F83C0020680168C9073E
:100DC00003D1016841F0010101602168086820F445
:100DD00000600860222084F83D00402084F83E0036
:100DE00000262664C4F82480A4F82A90608D20850B
:100DF0006748E062CDE9007553465A46204604999B
:100E000000F014FD00287DD1208DDFF8888168B1C5
:100E1000012814D0022820D02068016841F48061A4
:100E200001602068416980690090A0E02068416904
:100E300081690091016841F40071016097E02068C8
:100E4000016821F48061016072B62068416981699E
:100E50000091016841F400710CE02168086840F4D9
:100E60000060086072B6206841698169009101687C
:100E700021F48061016062B679E084E003284FD8F4
:100E800001280BD002283B464FF000024146204685
:100E900000950ED000F0AEFDA0BB0FE02A4639460B
:100EA000204600F026FE68BB20680069616A087071
:100EB00054E000F09FFD28BB72B61AE0206801687C
:100EC00021F48061016072B620680069616A08706F
:100ED000606A401C6062208D401E2085608D401E2F
:100EE00060853B46002241462046009500F082FD89
:100EF00040B92068016841F4007101602068006910
:100F0000616A00E012E00870606A401C6062218D36
:100F1000491E2185618D491E618562B621681BE0ED
:100F20002A463946204600F0E4FD18B1012007B0FA
:100F3000BDE8F08F20680069616A0870606A401C33
:100F40006062218D491E2185618D491E6185216860
:100F50004A69D24352070AD409690170606A401C89
:100F60006062208D401E2085608D401E6085208D32
:100F7000002883D1202084F83D0084F83E6084F866
:100F80003C600020D3E70220D1E7000002001000FF
:100F90000000FFFF040001002DE9FF4F83B09A46D7
:100FA000DDE9119793460446DDF84080FFF7E2FC47
:100FB000054694F83D0020287FD11923012240499D
:100FC0002046009500F016FD002876D194F83C00EC
:100FD000012872D0012084F83C0020680168C9070C
:100FE00003D1016841F0010101602068016821F42A
:100FF00000610160212084F83D00402084F83E001B
:1010000000262664C4F82480A4F82A90608D2085E8
:101010002C48E062CDE9007553465A4620460499B3
:1010200000F078FC70B930E02A463946204600F0DE
:1010300093FD58B1206C042804D12068016841F464
:1010400000710160012007B0BDE8F08F606A21687F
:1010500000780861606A401C6062218D491E89B277
:101060002185628D521E628522685369DB435B07CE
:101070000BD469B100781061606A401C6062208DF9
:10108000401E2085608D401E6085208D0028CBD1BC
:101090002A463946204600F087FC0028CAD154F879
:1010A0003D0B016841F400710160202004F81E0925
:1010B000E67766770020C6E7FFE70220C3E7000077
:1010C000020010000000FFFF30B585B00021009144
:1010D0000191029103911E4D03681E4C12210322BF
:1010E0001D48AB4216D1A36943F00803A361A3696D
:1010F000039203F008030493C023CDE9003169464D
:10110000FFF742FBE06940F40010E061E06900F4A1
:10111000001019E0114DAB4217D1A36943F0080349
:10112000A361A369039203F0080304934FF440639F
:10113000CDE900316946FFF727FBE06940F4800004
:10114000E061E06900F48000049005B030BD00006B
:101150000054004000100240000C014000580040C4
:1011600002488168027811448160704710000020B5
:10117000074810B5016841F010010160032000F03C
:1011800067F8002000F006F800F024F8002010BDF9
:101190000020024070B50D4D04464FF47A71287856
:1011A000B1FBF0F00A490968B1FBF0F000F0CEFAAB
:1011B00048B9102C07D200222146501E00F028F812
:1011C00000206C6070BD012070BD00001000002088
:1011D0001C0000200C4808B5816941F001018161C3
:1011E000816901F001010091C16941F08051C16143
:1011F000C06900F0805000900448416821F0E0612F
:1012000041F00071416008BD001002400000014043
:10121000F0B40E4B1B680C46C3F30223C3F1070561
:10122000042D00D90425191D072901D2002300E04F
:10123000DB1E012606FA05F1491E214099409E4019
:10124000761E16403143F0BC00F0F0BE0CED00E01D
:10125000064900F0070208684FF6FF03184040EA0D
:101260000220034A10430860704700000CED00E0C4
:101270000000FA052DE9F0470F46050061D0434E06
:10128000306800F00700B84209D2306820F007004B
:1012900038433060306800F00700B84251D1286808
:1012A0003B4C810712D5400703D5606840F4E060ED
:1012B00060602878000703D5606840F46050606083
:1012C0006068A96820F0F000084360602878C007D3
:1012D00028D06868012810D02168022810D089071A
:1012E00000292EDA616821F0030101436160FFF7F4
:1012F00041FB804641F288390DE021688903EFE720
:101300008901EDE7FFF736FBA0EB0801494502D95B
:101310000320BDE8F0876068696800F00C00B0EB5E
:10132000810FEFD1306800F00700B8420BD9306868
:1013300020F0070038433060306800F00700B84202
:1013400001D00120E5E72878400705D56068E96805
:1013500020F4E060084360602878000706D56068E4
:10136000296920F4605040EAC100606000F028F86C
:101370006168084AC1F30311515CC840064908601E
:1013800006480068FFF706FF0020C2E70020024081
:1013900000100240143500081C000020140000203A
:1013A0000448054900684968044AC1F30221515CB8
:1013B000C84070471C00002000100240243500087F
:1013C00012A185B00FC98DE80F0014A0144A00685F
:1013D00004905168134801F00C03042B10D0082B23
:1013E0000ED1C1F38343C9031DF803000AD5516828
:1013F00004AAC1F34041515C0A4A5043B0FBF1F0EA
:1014000005B0704708494843FAE7000002030405A5
:10141000060708090A0B0C0D0E0F10100102000040
:101420000010024000127A0000093D002DE9F84F3B
:10143000040070D02078C04DC00749D06868C0F360
:101440008100012807D06868C0F38100022809D113
:101450006868C00306D52868800339D5606800280D
:10146000E7D035E06068B0F5803F0BD010B1B0F543
:10147000A02F11D0286820F480302860286820F43C
:10148000802002E0286840F480302860606890B1D5
:10149000FFF770FA06460AE0286840F480202860CA
:1014A000F0E700BFFFF766FA801B642873D828684E
:1014B0008003F7D50CE0FFF75DFA064605E000BFB4
:1014C000FFF758FA801B6428F0D828688003F7D407
:1014D00020789A4E80074FF001094FF0000839D567
:1014E000686810F00C0F07D06868C0F3810002280C
:1014F00009D16868C00306D42868800714D520691C
:10150000012808D110E02069B0B1C6F80090FFF7BB
:1015100031FA074605E00AE1FFF72CFAC01B022862
:10152000C4D828688007F7D52868616920F0F800DA
:1015300040EAC10028600DE0C6F80080FFF71AFA03
:10154000074604E0FFF716FAC01B022823D82868D4
:101550008007F7D4207800072CD57948A169D9B144
:10156000C0F80090FFF706FA074604E0FFF702FA1A
:10157000C01B02280FD8686A8007F7D571484FF45E
:10158000FA510068B0FBF1F0009000BF0098411ED6
:101590000091FAD20EE080E0C0F80080FFF7EAF98F
:1015A000074604E0FFF7E6F9C01B022875D8686A11
:1015B0008007F7D42078400760D5E8690027C0008D
:1015C00008D4E86940F08050E861E869012700F03C
:1015D000805000905C480168C90513D401688346B7
:1015E00041F480710160FFF7C5F9824606E000BF53
:1015F000FFF7C0F9A0EB0A0064284ED8DBF8000022
:10160000C005F5D5E06801280AD008B1052813D037
:10161000286A20F001002862286A20F0040002E015
:10162000286A40F001002862E06841F2883B98B1E6
:10163000FFF7A0F982460BE0286A40F00400286218
:10164000EEE700BFFFF796F9A0EB0A0159455AD81B
:10165000286A8007F6D50CE0FFF78CF9824605E092
:10166000FFF788F9A0EB0A0159454CD8286A800792
:10167000F6D41FB1E86920F08050E861E06988B3D2
:101680006968C1F38101022944D00228C6F860804C
:1016900004D0FFF76FF9044638E034E0FFF76AF949
:1016A000074604E0FFF766F9C01B02282BD828681C
:1016B0008001F7D4206AB0F5803F05D16868A16841
:1016C00020F4003008436860D4E9080108436968E1
:1016D00021F4741108436860C6F86090FFF74AF976
:1016E000044606E025E000BFFFF744F9001B02288E
:1016F00009D828688001F7D51BE000BFFFF73AF949
:10170000001B022802D90320BDE8F88F2868800159
:10171000F4D40EE00128F7D06868226A00F4803122
:10172000914204D1616A00F47010884201D0012016
:10173000EAE70020E8E70000001002400000424213
:10174000800442421C0000200070004010B5401E82
:10175000B0F1807F01D3012010BD4FF0E024606123
:101760000F21601700F062FC0020A06107202061BB
:10177000002010BDFEE701684A69D24352050FD42C
:101780006FF480624A61002140F8301F20224273CA
:101790008173026942F00402026101730120704703
:1017A00000207047F8B50446C06A1E460D4617462D
:1017B000082807D0012805D010F5803F02D0206B03
:1017C000122804D12068016841F480710160134639
:1017D00000224FF001112046009600F00BF908BBE3
:1017E0002069B0F5804F0ED00620216800EAD510A0
:1017F00040F0F000086133463A460B49204600F0BD
:101800002DF978B902E005F0FE0000E0E8B22168A9
:101810000861054933463A46891F204600F01EF903
:10182000002800D00120F8BD080001002DE9F84F84
:101830000446006889460B9D01689846174641F4A6
:10184000806101602068016841F480710160009549
:101850004FF0011A0022514620460A9B00F0CAF8B8
:10186000002853D1216809F0FE0008610AF1010B3C
:101870002B46594620460A9A00F0F0F8F0BB206843
:101880004169806900902A4620460A9900F064F96F
:1018900040B1206C042839D12068016841F40071FE
:1018A000016033E0FEB2B8F1010F09D02168380AB7
:1018B00008612A4620460A9900F04EF90028E8D12E
:1018C000206806612A4620460A9900F045F900285A
:1018D000DFD12068016841F4807101600095002229
:1018E000514620460A9B00F085F838B9216809F076
:1018F000FF0040F0010008612B4600E006E0594679
:1019000020460A9A00F0AAF8002800D00120BDE87D
:10191000F88F00002DE9F843044600680D46DDE924
:10192000089701689846164641F4807101604B465D
:1019300000224FF001112046009700F05BF8E0B95B
:10194000216805F0FE0008613B464A4615492046DD
:1019500000F084F888B920684169806900903A46AF
:101960004946204600F0F8F850B1206C042804D114
:101970002068016841F4007101600120BDE8F8832E
:10198000F5B2B8F1010F09D02168300A08613A4672
:101990004946204600F0E0F80028E6D120680561BD
:1019A0000020EBE70200010070B516460D46044624
:1019B0000DE02046FFF7DFFE08B1012070BD681C76
:1019C00005D0FEF7D7FF801BA84207D835B12068A5
:1019D0004069C0434007ECD4002070BD002044F8AB
:1019E000300F20216173A073216941F02001216132
:1019F0002073E2E72DE9F0471E4690460D46044667
:101A0000C1F30747DDF8209008E0701C06D0FEF710
:101A1000B1FFA0EB0900B0420FD876B12068012FCA
:101A200018D0806925EA00000004000C14D00021C1
:101A30004145EAD00020BDE8F087002044F8300F8F
:101A400020216173A073216941F02001216120737D
:101A50000120F0E74069E5E70121E9E72DE9F047DA
:101A60009A4691460E46044600254FF02008C1F3E1
:101A7000074725E020684069C043400514D420682A
:101A8000016841F40071016021686FF48060486171
:101A9000256384F83D8084F83E50206C40F00400BB
:101AA000206484F83C501FE0B9F1FF3F08D0FEF7F6
:101AB00061FFA0EB0A0149450CD8B9F1000F09D02C
:101AC0002068012F13D0806926EA00000004000C72
:101AD0000BD0CFE744F8305F84F80D80A573206900
:101AE00040F02000206125730120BDE8F0874069A7
:101AF000EAE72DE9F041002590460E4604462027EE
:101B000017E04069C043C0060CD454F8301B6FF096
:101B10001000486144F810596777A577206A206261
:101B2000257717E0FEF726FFA0EB0800B04208D8A3
:101B30003EB120684169C9434906E2D40020BDE8AE
:101B4000F08144F8305F6773A573206940F020008E
:101B5000206125730120F2E770B516460D46044654
:101B60000DE02046FFF707FE08B1012070BD681C9C
:101B700005D0FEF7FFFE801BA84207D835B12068CC
:101B80004069C0430006ECD4002070BD002044F83A
:101B9000300F20216173A073216941F02001216180
:101BA0002073E2E770B586B00024184800940194D1
:101BB00002940394816941F010018161816901F00F
:101BC00010010491816941F008018161816901F08E
:101BD00008010491816941F00401816180690C4E22
:101BE00000F004004FF4604504900022294630467E
:101BF000FEF7BAFE01200095CDE901040220039012
:101C000069463046FEF7C0FD06B070BD00100240C8
:101C1000001001400D4810B50B4901600C494160AE
:101C200000214FF480428160C0E90312416181616B
:101C3000C1610162FEF7A4FE002803D0BDE8104098
:101C4000FEF78EBD10BD00000054004028040020A7
:101C5000801A06000D4810B50B4901600C4941601F
:101C600000214FF480428160C0E90312416181612B
:101C7000C1610162FEF784FE002803D0BDE8104078
:101C8000FEF76EBD10BD0000005800407C0400202F
:101C9000801A0600FEE770477047000070B5802884
:101CA00013D2402911D20B4B012401F007051E79F4
:101CB000AC40094BC90800EBC1100EB132B101E0D4
:101CC000012A03D0195CA143195470BD195C21434A
:101CD000FAE70000080000202800002028B1FF22B9
:101CE0004FF480610248FEF72DBA0022F8E70000A9
:101CF00028000020014A1080518070470800002011
:101D000010B500F015FD44F62063012278215148FA
:101D1000FEF7F0FE08B1002010BD40F6C210401ED4
:101D2000FDD1AE220021782000F008FD2022002104
:101D3000782000F003FD10220021782000F0FEFC46
:101D4000B0220021782000F0F9FCC8220021782080
:101D500000F0F4FC00221146782000F0EFFC102285
:101D60000021782000F0EAFC40220021782000F0D9
:101D7000E5FC81220021782000F0E0FCFF22002118
:101D8000782000F0DBFCA1220021782000F0D6FCB6
:101D9000A6220021782000F0D1FCA8220021782082
:101DA00000F0CCFC3F220021782000F0C7FCA422E8
:101DB0000021782000F0C2FCD3220021782000F01E
:101DC000BDFC00221146782000F0B8FCD52200218D
:101DD000782000F0B3FCF0220021782000F0AEFC67
:101DE000D9220021782000F0A9FC222200217820AD
:101DF00000F0A4FCDA220021782000F09FFC1222DF
:101E00000021782000F09AFCDB220021782000F0ED
:101E100095FC20220021782000F090FC8D220021EA
:101E2000782000F08BFC14220021782000F086FC42
:101E3000AF220021782000F081FC0020FFF74EFF48
:101E400000F070F8044800210180418001214171B7
:101E5000084610BD7C040020080000202DE9F04752
:101E6000814625480D46924601882A7811448029EA
:101E700005D28046408869780844402802D3002073
:101E8000BDE8F08700262AE0A9F1200101FB0060EF
:101E90006A68002432F810701DE000BF07FA04F0F1
:101EA000000409D5B8F80210B8F800003144204405
:101EB00089B280B252460BE0BAF1000F1AD000226C
:101EC000B8F80210B8F800003144204489B280B25A
:101ED000FFF7E4FE641C2878A042DFD8761C6878FF
:101EE000B042D1D8B8F800102A7848461144A8F872
:101EF0000010C5E70122E3E70800002070B5154691
:101F00000E46044609E02A463146FFF7A7FF21782E
:101F1000884201D0C8B270BD641C20780028F2D17C
:101F2000C0B270BD70B5104D002400BF04F1B00008
:101F3000C2B20021782000F001FC00221146782076
:101F400000F0FCFB10220021782000F0F7FB05EBED
:101F5000C41280234021782000F000FC641CE4B20D
:101F6000082CE3D370BD0000280000207047FFF765
:101F7000F7B830B58FB028216846FEF7EAF814218B
:101F80000AA8FEF7E6F8012002250490009510202B
:101F900005900024CDE9075468460994FFF746FAF6
:101FA0000F200A90CDE90B540D9400210AA80E943D
:101FB000FFF760F90FB030BD0D48016841F0010135
:101FC000016041680B4A1140416001680A4A1140B2
:101FD0000160016821F480210160416821F4FE0163
:101FE00041604FF41F0181600449C00308607047DD
:101FF000001002400000FFF8FFFFF6FE08ED00E0D1
:10200000FEE700000FB4084B10B504A902AA03981C
:1020100000F02CF8044602A9002000F0D1F8204678
:1020200010BC5DF814FB0000C12100080907090E6F
:10203000002804DB00F1E02080F80014704700F075
:102040000F0000F1E02080F8141D704702E008C87E
:10205000121F08C1002AFAD170477047002001E022
:1020600001C1121F002AFBD1704700002DE9FF4F6C
:1020700089B09B460446002506E025280BD05A4629
:102080000B999047641C6D1C20780028F5D10DB089
:102090002846BDE8F08F0027B8460122474900E0F6
:1020A000074314F8013F203B02FA03F00842F7D13E
:1020B00020782E2819D114F8010F47F004072A2898
:1020C0000ED06FF02F022078A0F1300109290CD832
:1020D00008EB880102EB410100EB0108641CF2E708
:1020E0000A98641C50F8048B0A9020780028CED0FF
:1020F000642808D0692806D075281ED05A460B9946
:1021000090476D1C58E00A994FF00A0901C90A91DD
:10211000002802DA40422D2102E0390504D52B21A6
:102120008DF82010012103E0F90704D02021F7E702
:102130008A4608AE0DE00021FAE70A994FF00A0935
:1021400001C90A91F7E74946FEF72AFA303106F845
:10215000011D0028F7D1ADEB060000F1200978073A
:1021600001D44FF00108C84502DDA8EB090000E0EA
:1021700000208046002706E008A85A46C05D0B995B
:1021800090476D1C7F1C5745F6DB04E030205A4613
:102190000B9990476D1CB8F10001A8F10108F5DC1E
:1021A00005E016F8010B5A460B9990476D1CB9F1E2
:1021B0000001A9F10109F4DC641C65E709280100AC
:1021C0000A68531C0B601070704700210160704753
:1021D000002101607047000010B5002821D0114B8C
:1021E0000022001F196803E0814203D80A464968AB
:1021F0000029F9D152B11368841A9C4204D10068B5
:1022000018441060104602E0506000E0186039B1D8
:1022100002680B1A934203D10B681A4402604968A2
:10222000416010BD200000200E490F4B0144B1F564
:10223000801F03D800224FF4004110E00B494218E0
:102240004FF440218A4203D3094A1044884203D202
:1022500000224FF4804102E000224FF40051184662
:10226000FEF782BB000054BE00100140000060BEBB
:10227000FFFF43BE10B50446002020601E20FEF77D
:1022800071FA204600F014F93220FEF76BFA20466E
:1022900000F0BAF804F13800BDE81040012100F068
:1022A00023BA000094B000208DF848008DF84C004F
:1022B0001190FEF75DFFFFF75CFEFFF773FCFFF781
:1022C000A9FCFFF7C7FCFFF71BFD0020FFF706FD89
:1022D000FFF728FE0A210846FFF70CFD6846FFF7C6
:1022E000C9FF00F0EBF941F288340FA8FFF770FF47
:1022F0006846FFF76AFF0FA800F06EF90FA800F01C
:1023000031F9684600F0AAF9684600F0FBF811AA16
:1023100010990A9800F046FA0020FFF7DFFC0F2121
:102320000846FFF7E7FC1198FEF7F2F8024614A101
:1023300013A8FFF767FE0122144913A8FFF7DEFD7B
:1023400028210F20FFF7D6FC0F98FEF7E1F8024690
:102350000FA112A8FFF756FE01220C4912A8FFF7A1
:10236000CDFDFFF7DFFD1198FFF75EFF2046FEF77A
:10237000F9F900F0A3F92046FEF7F4F9B5E70000FB
:1023800054656D703A20256943000000000000206C
:1023900048756D693A20256925250000F0B50B3098
:1023A000154D20F007010024144A0FE003688B420A
:1023B0000BD38B4205D95E1A43184768C3E90067FF
:1023C00000E04368136002C004E0021D10680028AA
:1023D000ECD12046002802D1286808B10020F0BDC9
:1023E000064A07481060074A121A22F00702C0E99D
:1023F000002401202860D7E72400002020000020CE
:10240000D4040020D006002010B504468AB0002075
:1024100084F83A00182103A8FDF79BFE322216210A
:1024200003A88DE807000123AA22EF211F48FEF729
:10243000A3FCBDF80C0040BA00B22080BDF80E101D
:1024400049BA6180BDF8101049BAA180BDF81210D8
:1024500049BAE180BDF8141049BA2181BDF81610BF
:1024600049BA6181BDF8181049BAA181BDF81A10A6
:1024700049BAE181BDF81C1049BA2182BDF81E108D
:1024800049BA6182BDF8201049BAA18250B1002139
:10249000401C09D00020014302D0022084F83A00F9
:1024A0000AB010BD0121F3E70120F4E72804002061
:1024B00070B586B0054600208DF80C0085F83A000E
:1024C0000124322604A88DE851002346E022EE21A3
:1024D0000B48FEF761FD0A20FEF744F903A88DE8DA
:1024E00051000123D022EF210548FEF745FC9DF85D
:1024F0000C00552801D085F83A4006B070BD0000A8
:102500002804002010B504468069FEF701F86189AF
:10251000B4F91420401A21894843B4F91210C013A9
:10252000C902024491FBF2F1084408300011FDF7A2
:10253000E1FF0849FDF770FE0749A062884202D218
:102540000649884204DB0648A062032084F83A006A
:1025500010BD0000CDCCCC3D000020C20000AA423E
:1025600000C079C47FB504460020039032220221C6
:1025700003A88DE807000123E52280211248FEF719
:10258000FBFB9DF80D0000F00300022801D00F486E
:1025900020609DF80C000002FDF7B5FF05462060A5
:1025A0009DF80D008008FDF7AEFF2946FDF7DCFD24
:1025B0000749FDF731FE6FF00F01FDF75FFE05499A
:1025C000FDF7D2FD20607FBD2804002000C079C443
:1025D0000000FA420000C0C07FB50446002003900E
:1025E0003222022103A88DE807000123E322802183
:1025F0001448FEF7C1FB9DF80D00800701D012487A
:1026000060609DF80C000002FDF77DFF05466060EC
:102610009DF80D008008FDF776FF2946FDF7A4FD23
:10262000FDF78FFF094A0A4BFDF7DBFE6FF00F0243
:10263000FDF749FF074A084BFDF72CFEFDF794FF15
:1026400060607FBD2804002000C079C4D7A3703D1E
:102650000AF76540CDCCCCCCCC6C47C07FB50546E5
:102660002E208DF80C00012003AE32240096CDE917
:1026700001040346F422EE210F48FEF78DFC3220C0
:10268000FEF770F802200096CDE901040123F6223E
:10269000EF210948FEF770FB9DF80C009DF80D1026
:1026A000000440EA01209DF80E100843000AFDF7DF
:1026B0002AFFA8617FBD00002804002010B5094C46
:1026C000012251032046FEF74FF9012291032046D3
:1026D000FEF74AF920460122BDE81040D103FEF77B
:1026E00043B90000001001401FB50022039239B128
:1026F0000822012905D0022914D0032901D113E0B1
:1027000005224270017088018DF80D0032220221ED
:1027100003A88DE807000123F422EE210348FEF709
:102720003BFC1FBD0E22ECE71A22EAE7280400203A
:102730000148401EFDD1704790D003001CB5022314
:102740008DF804100A2100918DF80520014601AA98
:102750000148FEF77BFA1CBD7C0400202DE9F843FC
:1027600080461C4616460F46581CFFF717FE0546C6
:102770000770012005E0311811F8011C2954401C94
:10278000C0B2A042F7D90A20009023462A4641460B
:102790000348FEF75BFA2846BDE8F843FFF71CBD87
:1027A0007C04002010B51446FDF7DEFC4FF0FF312D
:1027B000FDF764FD206010BD000000000000000077
:1027C0000000000000000000000000000000000009
:1027D0000000000000000000000000000000000CED
:1027E000000C000C000C000C000C000C000C000C89
:1027F000000C000C0000000C000C000000000000A9
:102800000000001B001B001B001B001B0000000041
:1028100000000000000000000000000000000000B8
:102820000000000000008019801980198019C07F05
:10283000C07F80190033C07FC07F00330033003376
:1028400000330000000000000000001E003F807503
:1028500080650074003C001E00078005806580656F
:102860008075003F001E000400040000000000709E
:1028700000D840D8C0D880D900730006000C801B57
:10288000C036C066C046C0068003000000000000DD
:102890000000001E003F003300330033001E000C18
:1028A000C03CC066806380618063C03E801C0000C5
:1028B000000000000000000C000C000C000C000CDC
:1028C0000000000000000000000000000000000008
:1028D000000000000000000080000001000300066E
:1028E00000060004000C000C000C000C000C000C96
:1028F0000004000600060003000180000020001014
:102900000018000C000C000400060006000600067B
:10291000000600060004000C000C00180010002047
:102920000000000C002D003F001E003300000000DE
:102930000000000000000000000000000000000097
:1029400000000000000000000000000C000C000C63
:10295000000CC0FFC0FF000C000C000C000C0000BD
:102960000000000000000000000000000000000067
:102970000000000000000000000000000000000057
:102980000000000C000C000400040008000000001F
:102990000000000000000000000000000000001E19
:1029A000001E000000000000000000000000000009
:1029B0000000000000000000000000000000000017
:1029C00000000000000000000000000C000C0000EF
:1029D00000000000000000030003000300060006E2
:1029E00000060006000C000C000C000C001800187B
:1029F00000180000000000000000001E003F00332F
:102A0000806180618061806D806D806180618061A6
:102A10000033003F001E0000000000000000000620
:102A2000000E001E00360026000600060006000606
:102A30000006000600060006000600000000000078
:102A40000000001E003F80738061806180010003F0
:102A50000006000C001800300060807F807F0000BE
:102A6000000000000000001C003E00630063000343
:102A7000000E000E00038001800180618073003F22
:102A8000001E00000000000000000006000E000E06
:102A9000001E001E0016003600360066807F807F14
:102AA0000006000600060000000000000000007F95
:102AB000007F006000600060006E007F8063800126
:102AC000800180618073003F001E00000000000054
:102AD0000000001E003F803380610060006E007FB8
:102AE00080738061806180618033003F001E000040
:102AF000000000000000807F807F80010003000351
:102B000000060006000C000C000C0008001800185D
:102B100000180000000000000000001E003F80635D
:102B2000806180610021001E003F806180618061C2
:102B30008061003F001E0000000000000000001E39
:102B4000003F00738061806180618073803F801DE1
:102B5000800180610073003F001E00000000000043
:102B600000000000000000000000000C000C00004D
:102B700000000000000000000000000C000C00003D
:102B80000000000000000000000000000000000045
:102B9000000C000C00000000000000000000000C11
:102BA000000C000400040008000000000000000009
:102BB00080008003000E003800600038000E8003A3
:102BC0008000000000000000000000000000000085
:102BD000000000000000807F807F00000000807FF8
:102BE000807F0000000000000000000000000000E6
:102BF000000000000000000000400070001C000702
:102C000080010007001C0070004000000000000070
:102C1000000000000000001F803FC071C060C000C5
:102C2000C00180030007000E000C000C0000000C27
:102C3000000C0000000000000000001E003F80317A
:102C400080718063806F806D806D806F80670060B1
:102C50000032003E001C0000000000000000000EDA
:102C6000000E001B001B001B001B80318031803FC9
:102C7000803F8031C060C060C06000000000000084
:102C80000000007C007E0063006300630063007E40
:102C9000007E0063806180618063007F007E0000B1
:102CA000000000000000001E003F803180610060D5
:102CB0000060006000600060006080618031003F63
:102CC000001E0000000000000000007C007F006388
:102CD0008063806180618061806180618061006368
:102CE0000063007E007C0000000000000000807F88
:102CF000807F0060006000600060007F007F0060F7
:102D0000006000600060807F807F000000000000A5
:102D10000000807F807F0060006000600060007FB6
:102D2000007F0060006000600060006000600000E4
:102D3000000000000000001E003F80318061006044
:102D40000060006080638063806180618031803FCB
:102D5000001E0000000000000000806180618061B2
:102D6000806180618061807F807F8061806180611F
:102D70008061806180610000000000000000003F71
:102D8000003F000C000C000C000C000C000C000CB0
:102D9000000C000C000C003F003F00000000000091
:102DA000000080018001800180018001800180019C
:102DB00080018001806180618073003F001E0000FF
:102DC000000000000000C0608061006300660066D3
:102DD000006C0078007C00660066006380618061A2
:102DE000C0600000000000000000006000600060A3
:102DF00000600060006000600060006000600060D3
:102E00000060807F807F0000000000000000C07133
:102E1000C071C07BC07AC06AC06AC06EC064C06046
:102E2000C060C060C060C060C06000000000000002
:102E3000000080718071807980798079806D806DEB
:102E4000806D806580678067806780638063000035
:102E5000000000000000001E003F00338061806120
:102E60008061806180618061806180610033003FAA
:102E7000001E0000000000000000007E007F806354
:102E80008061806180618063007F007E00600060FF
:102E90000060006000600000000000000000001EF4
:102EA000003F00338061806180618061806180616A
:102EB000806580670033803F401E000000000000F6
:102EC0000000007E007F8063806180618063007FFE
:102ED000007E00660063006380618061C060000066
:102EE000000000000000000E001F80318031003023
:102EF0000038001E00078003806180618031003F40
:102F0000001E0000000000000000C0FFC0FF000C19
:102F1000000C000C000C000C000C000C000C000C51
:102F2000000C000C000C000000000000000080619C
:102F30008061806180618061806180618061806189
:102F4000806180618073003F001E0000000000006F
:102F50000000C060C060C060803180318031001BE3
:102F6000001B001B001B000E000E000E00040000E2
:102F7000000000000000C0C0C0C0C0C0C0C0C0C0D1
:102F8000C0CC804C804C805E8052805280738061C7
:102F900080610000000000000000C0C0806080610F
:102FA0000033003B001E000C000C001E001F003B05
:102FB00080718061C0C00000000000000000C0C03F
:102FC0008061806100330033001E001E000C000C85
:102FD000000C000C000C000C000C000000000000B5
:102FE0000000803F803F8001000300030006000CCA
:102FF000000C0018001800300060807F807F000007
:1030000000000000000F000F000C000C000C000C72
:10301000000C000C000C000C000C000C000C000C50
:10302000000C000C000F000F000000180018001822
:10303000000C000C000C000C000600060006000648
:10304000000300030003000000000000001E001E3B
:103050000006000600060006000600060006000640
:10306000000600060006000600060006001E001E00
:103070000000000C000C001E0012003300338061C1
:10308000806100000000000000000000000000005F
:103090000000000000000000000000000000000030
:1030A0000000000000000000000000000000000020
:1030B00000000000E0FF0000000000380018000CD5
:1030C0000000000000000000000000000000000000
:1030D00000000000000000000000000000000000F0
:1030E000000000000000001F803F80618001801F01
:1030F000803F80618063807FC03800000000000056
:1031000000000060006000600060006E007F80735F
:1031100080618061806180618073007F006E00004B
:103120000000000000000000000000000000001E81
:10313000003F807380610060006080618073003FA9
:10314000001E0000000000000000800180018001DE
:103150008001801D803F807380618061806180611B
:103160008073803F801D0000000000000000000010
:10317000000000000000001E003F00738061807F9F
:10318000807F00608071003F001E00000000000092
:103190000000C007C00F000C000C807F807F000C77
:1031A000000C000C000C000C000C000C000C0000CB
:1031B000000000000000000000000000801D803FB3
:1031C000807380618061806180618073803F801D39
:1031D00080018063007F003E0000006000600060AE
:1031E0000060006F807F807180618061806180619C
:1031F0008061806180610000000000000000000626
:10320000000600000000003E003E0006000600062A
:103210000006000600060006000600000000000090
:103220000006000600000000003E003E000600060A
:10323000000600060006000600060006000600461E
:10324000007E003C00000060006000600060806163
:1032500000630066006C007C0076006300638061A0
:10326000C0600000000000000000003E003E0006BC
:10327000000600060006000600060006000600061E
:10328000000600060006000000000000000000002C
:1032900000000000000080DDC0FFC0CEC0CCC0CC6C
:1032A000C0CCC0CCC0CCC0CCC0CC00000000000062
:1032B00000000000000000000000006F807F8071AF
:1032C00080618061806180618061806180610000D7
:1032D0000000000000000000000000000000001ED0
:1032E000003F807380618061806180618073003FF6
:1032F000001E0000000000000000000000000000B0
:10330000006E007F80738061806180618061807366
:10331000007F006E00600060006000600000000040
:1033200000000000801D803F8073806180618061AB
:1033300080618073803F801D800180018001800159
:10334000000000000000000000000067803F00391E
:10335000003000300030003000300030003000001D
:103360000000000000000000000000000000001E3F
:10337000803F80610060007F803F80018061007F2E
:10338000001E0000000000000000000000080018FF
:103390000018007F007F001800180018001800189F
:1033A0000018801F800F00000000000000000000D7
:1033B00000000000000080618061806180618061A8
:1033C000806180618063807F803D0000000000009C
:1033D00000000000000000000000C060803180316B
:1033E0008031001B001B001B000E000E00060000B9
:1033F000000000000000000000000000000080DD70
:1034000080DD80DD005500550055007700770022F3
:10341000002200000000000000000000000000008A
:103420000000806100330033001E000C000C001E01
:103430000033003380610000000000000000000045
:103440000000000080618061803100330033001B88
:10345000001B001B000E000E000E001C007C007004
:1034600000000000000000000000C07FC07F80015D
:1034700000030006000C00180030C07FC07F000071
:10348000000000008003800700060006000600061A
:103490000006000E001C001C000E000600060006C0
:1034A00000060006800780030006000600060006EE
:1034B00000060006000600060006000600060006DC
:1034C0000006000600060006000600060038003C64
:1034D000000C000C000C000C000C000E0007000794
:1034E000000E000C000C000C000C000C003C00381E
:1034F0000000000000000000000000000000803814
:10350000807F004700000000000000000000000075
:1035100000000000000000000000000001020304A1
:103520000607080900000000010203044C350008EA
:1035300000000020280000004C200008743500081E
:1035400028000020A80A00005C2000080B120000E0
:10355000B827000800000000000000000100000083
:1035600010000000000000000024F4000000000033
:043570000000000057
:04000005080000ED02
:00000001FF
